{"abi":[{"type":"function","name":"didUserSign","inputs":[{"name":"_signature","type":"bytes32","internalType":"bytes32"},{"name":"_user","type":"address","internalType":"address"}],"outputs":[{"name":"","type":"bool","internalType":"bool"}],"stateMutability":"view"},{"type":"function","name":"getUserFromHash","inputs":[{"name":"_signature","type":"bytes32","internalType":"bytes32"}],"outputs":[{"name":"","type":"address","internalType":"address"}],"stateMutability":"view"},{"type":"function","name":"removeSignature","inputs":[{"name":"_signature","type":"bytes32","internalType":"bytes32"},{"name":"_user","type":"address","internalType":"address"}],"outputs":[],"stateMutability":"nonpayable"},{"type":"function","name":"signHash","inputs":[{"name":"_signature","type":"bytes32","internalType":"bytes32"},{"name":"_user","type":"address","internalType":"address"}],"outputs":[],"stateMutability":"nonpayable"},{"type":"function","name":"signatureUser","inputs":[{"name":"","type":"bytes32","internalType":"bytes32"}],"outputs":[{"name":"","type":"address","internalType":"address"}],"stateMutability":"view"},{"type":"function","name":"userSignature","inputs":[{"name":"","type":"address","internalType":"address"},{"name":"","type":"bytes32","internalType":"bytes32"}],"outputs":[{"name":"","type":"bool","internalType":"bool"}],"stateMutability":"view"}],"bytecode":{"object":"0x608060405234801561001057600080fd5b506102aa806100206000396000f3fe608060405234801561001057600080fd5b50600436106100625760003560e01c80635a342556146100675780635bd82371146100ad578063aaaf94a6146100fb578063b9a0a9701461013f578063c1715f811461016a578063eea5abec14610193575b600080fd5b6100906100753660046101e9565b6000908152600160205260409020546001600160a01b031690565b6040516001600160a01b0390911681526020015b60405180910390f35b6100f96100bb36600461021e565b6001600160a01b0316600090815260208181526040808320938352928152828220805460ff19169055600190522080546001600160a01b0319169055565b005b61012f61010936600461021e565b6001600160a01b0316600090815260208181526040808320938352929052205460ff1690565b60405190151581526020016100a4565b61012f61014d36600461024a565b600060208181529281526040808220909352908152205460ff1681565b6100906101783660046101e9565b6001602052600090815260409020546001600160a01b031681565b6100f96101a136600461021e565b6001600160a01b0316600081815260208181526040808320948352938152838220805460ff1916600190811790915590529190912080546001600160a01b0319169091179055565b6000602082840312156101fb57600080fd5b5035919050565b80356001600160a01b038116811461021957600080fd5b919050565b6000806040838503121561023157600080fd5b8235915061024160208401610202565b90509250929050565b6000806040838503121561025d57600080fd5b61026683610202565b94602093909301359350505056fea2646970667358221220d04a45a3d051539beb37c2157c5537ba9be44ba8795c9e4b07049f522782ca7464736f6c63430008180033","linkReferences":{}},"methodIdentifiers":{"didUserSign(bytes32,address)":"aaaf94a6","getUserFromHash(bytes32)":"5a342556","removeSignature(bytes32,address)":"5bd82371","signHash(bytes32,address)":"eea5abec","signatureUser(bytes32)":"c1715f81","userSignature(address,bytes32)":"b9a0a970"},"id":0}