{"abi":[{"type":"constructor","inputs":[],"stateMutability":"nonpayable"},{"type":"function","name":"didUserSign","inputs":[{"name":"_signature","type":"bytes32","internalType":"bytes32"},{"name":"_user","type":"address","internalType":"address"}],"outputs":[{"name":"","type":"bool","internalType":"bool"}],"stateMutability":"view"},{"type":"function","name":"getUserFromHash","inputs":[{"name":"_signature","type":"bytes32","internalType":"bytes32"}],"outputs":[{"name":"","type":"address","internalType":"address"}],"stateMutability":"view"},{"type":"function","name":"owner","inputs":[],"outputs":[{"name":"","type":"address","internalType":"address"}],"stateMutability":"view"},{"type":"function","name":"removeSignature","inputs":[{"name":"_signature","type":"bytes32","internalType":"bytes32"},{"name":"_user","type":"address","internalType":"address"}],"outputs":[],"stateMutability":"nonpayable"},{"type":"function","name":"renounceOwnership","inputs":[],"outputs":[],"stateMutability":"nonpayable"},{"type":"function","name":"signHash","inputs":[{"name":"_signature","type":"bytes32","internalType":"bytes32"},{"name":"_user","type":"address","internalType":"address"}],"outputs":[],"stateMutability":"nonpayable"},{"type":"function","name":"signatureUser","inputs":[{"name":"","type":"bytes32","internalType":"bytes32"}],"outputs":[{"name":"","type":"address","internalType":"address"}],"stateMutability":"view"},{"type":"function","name":"transferOwnership","inputs":[{"name":"newOwner","type":"address","internalType":"address"}],"outputs":[],"stateMutability":"nonpayable"},{"type":"function","name":"userSignature","inputs":[{"name":"","type":"address","internalType":"address"},{"name":"","type":"bytes32","internalType":"bytes32"}],"outputs":[{"name":"","type":"bool","internalType":"bool"}],"stateMutability":"view"},{"type":"event","name":"OwnershipTransferred","inputs":[{"name":"previousOwner","type":"address","indexed":true,"internalType":"address"},{"name":"newOwner","type":"address","indexed":true,"internalType":"address"}],"anonymous":false},{"type":"error","name":"OwnableInvalidOwner","inputs":[{"name":"owner","type":"address","internalType":"address"}]},{"type":"error","name":"OwnableUnauthorizedAccount","inputs":[{"name":"account","type":"address","internalType":"address"}]}],"bytecode":{"object":"0x608060405234801561001057600080fd5b50338061003757604051631e4fbdf760e01b81526000600482015260240160405180910390fd5b61004081610046565b50610096565b600080546001600160a01b038381166001600160a01b0319831681178455604051919092169283917f8be0079c531659141344cd1fd0a4f28419497f9722a3daafe3b4186f6b6457e09190a35050565b610406806100a56000396000f3fe608060405234801561001057600080fd5b50600436106100935760003560e01c8063aaaf94a611610066578063aaaf94a614610147578063b9a0a9701461018d578063c1715f81146101bb578063eea5abec146101e4578063f2fde38b1461023c57600080fd5b80635a342556146100985780635bd82371146100de578063715018a61461012e5780638da5cb5b14610136575b600080fd5b6100c16100a6366004610323565b6000908152600260205260409020546001600160a01b031690565b6040516001600160a01b0390911681526020015b60405180910390f35b61012c6100ec366004610358565b6001600160a01b03166000908152600160209081526040808320938352928152828220805460ff19169055600290522080546001600160a01b0319169055565b005b61012c61024f565b6000546001600160a01b03166100c1565b61017d610155366004610358565b6001600160a01b03166000908152600160209081526040808320938352929052205460ff1690565b60405190151581526020016100d5565b61017d61019b366004610384565b600160209081526000928352604080842090915290825290205460ff1681565b6100c16101c9366004610323565b6002602052600090815260409020546001600160a01b031681565b61012c6101f2366004610358565b6001600160a01b03166000818152600160208181526040808420958452948152848320805460ff1916909217909155600290529190912080546001600160a01b0319169091179055565b61012c61024a3660046103ae565b610263565b6102576102a6565b61026160006102d3565b565b61026b6102a6565b6001600160a01b03811661029a57604051631e4fbdf760e01b8152600060048201526024015b60405180910390fd5b6102a3816102d3565b50565b6000546001600160a01b031633146102615760405163118cdaa760e01b8152336004820152602401610291565b600080546001600160a01b038381166001600160a01b0319831681178455604051919092169283917f8be0079c531659141344cd1fd0a4f28419497f9722a3daafe3b4186f6b6457e09190a35050565b60006020828403121561033557600080fd5b5035919050565b80356001600160a01b038116811461035357600080fd5b919050565b6000806040838503121561036b57600080fd5b8235915061037b6020840161033c565b90509250929050565b6000806040838503121561039757600080fd5b6103a08361033c565b946020939093013593505050565b6000602082840312156103c057600080fd5b6103c98261033c565b939250505056fea2646970667358221220aa970e1ba036c66b456256bf5cacddffe89b45e5032cf33143fc4dc80a5c31f364736f6c63430008180033","linkReferences":{}},"methodIdentifiers":{"didUserSign(bytes32,address)":"aaaf94a6","getUserFromHash(bytes32)":"5a342556","owner()":"8da5cb5b","removeSignature(bytes32,address)":"5bd82371","renounceOwnership()":"715018a6","signHash(bytes32,address)":"eea5abec","signatureUser(bytes32)":"c1715f81","transferOwnership(address)":"f2fde38b","userSignature(address,bytes32)":"b9a0a970"},"id":22}